{
  "_format": "hh-sol-artifact-1",
  "contractName": "HeadsTails",
  "sourceName": "contracts/HeadsTails.sol",
  "abi": [
    {
      "inputs": [],
      "stateMutability": "payable",
      "type": "constructor"
    },
    {
      "inputs": [
        {
          "internalType": "uint256",
          "name": "_userChoice",
          "type": "uint256"
        }
      ],
      "name": "bet",
      "outputs": [],
      "stateMutability": "payable",
      "type": "function"
    },
    {
      "inputs": [],
      "name": "betFeeETH",
      "outputs": [
        {
          "internalType": "uint256",
          "name": "",
          "type": "uint256"
        }
      ],
      "stateMutability": "view",
      "type": "function"
    },
    {
      "inputs": [
        {
          "internalType": "address",
          "name": "_newOwner",
          "type": "address"
        }
      ],
      "name": "changeOwner",
      "outputs": [],
      "stateMutability": "nonpayable",
      "type": "function"
    },
    {
      "inputs": [],
      "name": "deposit",
      "outputs": [],
      "stateMutability": "payable",
      "type": "function"
    },
    {
      "inputs": [],
      "name": "getBalance",
      "outputs": [
        {
          "internalType": "uint256",
          "name": "",
          "type": "uint256"
        }
      ],
      "stateMutability": "view",
      "type": "function"
    },
    {
      "inputs": [],
      "name": "getOwner",
      "outputs": [
        {
          "internalType": "address",
          "name": "",
          "type": "address"
        }
      ],
      "stateMutability": "view",
      "type": "function"
    },
    {
      "inputs": [],
      "name": "maxBetETH",
      "outputs": [
        {
          "internalType": "uint256",
          "name": "",
          "type": "uint256"
        }
      ],
      "stateMutability": "view",
      "type": "function"
    },
    {
      "inputs": [
        {
          "internalType": "uint256",
          "name": "_newFee",
          "type": "uint256"
        }
      ],
      "name": "setBetFee",
      "outputs": [],
      "stateMutability": "nonpayable",
      "type": "function"
    },
    {
      "inputs": [
        {
          "internalType": "uint256",
          "name": "_newAmount",
          "type": "uint256"
        }
      ],
      "name": "setMaxBet",
      "outputs": [],
      "stateMutability": "nonpayable",
      "type": "function"
    },
    {
      "inputs": [],
      "name": "withdraw",
      "outputs": [],
      "stateMutability": "nonpayable",
      "type": "function"
    }
  ],
  "bytecode": "0x60806040526801158e460913d000006001556702c68af0bb1400006002556000600355336000806101000a81548173ffffffffffffffffffffffffffffffffffffffff021916908373ffffffffffffffffffffffffffffffffffffffff1602179055503073ffffffffffffffffffffffffffffffffffffffff166108fc349081150290604051600060405180830381858888f193505050501580156100a8573d6000803e3d6000fd5b50611021806100b86000396000f3fe6080604052600436106100915760003560e01c80637365870b116100595780637365870b14610157578063881eff1e14610173578063893d20e81461019c578063a6f9dae1146101c7578063d0e30db0146101f057610091565b806312065fe0146100965780633919b197146100c15780633ccfd60b146100ec578063707edec61461010357806372229abf1461012e575b600080fd5b3480156100a257600080fd5b506100ab6101fa565b6040516100b89190610bc8565b60405180910390f35b3480156100cd57600080fd5b506100d6610202565b6040516100e39190610bc8565b60405180910390f35b3480156100f857600080fd5b50610101610208565b005b34801561010f57600080fd5b506101186102df565b6040516101259190610bc8565b60405180910390f35b34801561013a57600080fd5b5061015560048036038101906101509190610922565b6102e5565b005b610171600480360381019061016c9190610922565b610390565b005b34801561017f57600080fd5b5061019a60048036038101906101959190610922565b61062d565b005b3480156101a857600080fd5b506101b16106d8565b6040516101be9190610acd565b60405180910390f35b3480156101d357600080fd5b506101ee60048036038101906101e991906108f5565b610701565b005b6101f861079c565b005b600047905090565b60015481565b60008054906101000a900473ffffffffffffffffffffffffffffffffffffffff1673ffffffffffffffffffffffffffffffffffffffff163373ffffffffffffffffffffffffffffffffffffffff1614610296576040517f08c379a000000000000000000000000000000000000000000000000000000000815260040161028d90610b28565b60405180910390fd5b3373ffffffffffffffffffffffffffffffffffffffff166108fc479081150290604051600060405180830381858888f193505050501580156102dc573d6000803e3d6000fd5b50565b60025481565b60008054906101000a900473ffffffffffffffffffffffffffffffffffffffff1673ffffffffffffffffffffffffffffffffffffffff163373ffffffffffffffffffffffffffffffffffffffff1614610373576040517f08c379a000000000000000000000000000000000000000000000000000000000815260040161036a90610b28565b60405180910390fd5b670de0b6b3a7640000816103879190610c4a565b60028190555050565b80671bc16d674ec800003410156103dc576040517f08c379a00000000000000000000000000000000000000000000000000000000081526004016103d390610b68565b60405180910390fd5b600154341115610421576040517f08c379a000000000000000000000000000000000000000000000000000000000815260040161041890610ba8565b60405180910390fd5b4760023461042f9190610c4a565b1115610470576040517f08c379a000000000000000000000000000000000000000000000000000000000815260040161046790610b08565b60405180910390fd5b60018111156104b4576040517f08c379a00000000000000000000000000000000000000000000000000000000081526004016104ab90610ae8565b60405180910390fd5b60008054906101000a900473ffffffffffffffffffffffffffffffffffffffff1673ffffffffffffffffffffffffffffffffffffffff163373ffffffffffffffffffffffffffffffffffffffff161415610543576040517f08c379a000000000000000000000000000000000000000000000000000000000815260040161053a90610b88565b60405180910390fd5b600061054f600261086f565b90506000600254346105619190610ca4565b905060008054906101000a900473ffffffffffffffffffffffffffffffffffffffff1673ffffffffffffffffffffffffffffffffffffffff166108fc6002549081150290604051600060405180830381858888f193505050501580156105cb573d6000803e3d6000fd5b5081841415610627573373ffffffffffffffffffffffffffffffffffffffff166108fc34836105fa9190610bf4565b9081150290604051600060405180830381858888f19350505050158015610625573d6000803e3d6000fd5b505b50505050565b60008054906101000a900473ffffffffffffffffffffffffffffffffffffffff1673ffffffffffffffffffffffffffffffffffffffff163373ffffffffffffffffffffffffffffffffffffffff16146106bb576040517f08c379a00000000000000000000000000000000000000000000000000000000081526004016106b290610b28565b60405180910390fd5b670de0b6b3a7640000816106cf9190610c4a565b60018190555050565b60008060009054906101000a900473ffffffffffffffffffffffffffffffffffffffff16905090565b60008054906101000a900473ffffffffffffffffffffffffffffffffffffffff1673ffffffffffffffffffffffffffffffffffffffff163373ffffffffffffffffffffffffffffffffffffffff161461075957600080fd5b806000806101000a81548173ffffffffffffffffffffffffffffffffffffffff021916908373ffffffffffffffffffffffffffffffffffffffff16021790555050565b60008054906101000a900473ffffffffffffffffffffffffffffffffffffffff1673ffffffffffffffffffffffffffffffffffffffff163373ffffffffffffffffffffffffffffffffffffffff161461082a576040517f08c379a000000000000000000000000000000000000000000000000000000000815260040161082190610b28565b60405180910390fd5b6000341161086d576040517f08c379a000000000000000000000000000000000000000000000000000000000815260040161086490610b48565b60405180910390fd5b565b60006003600081548092919061088490610d14565b91905055508142336003546040516020016108a193929190610a90565b6040516020818303038152906040528051906020012060001c6108c49190610d8b565b9050919050565b6000813590506108da81610fbd565b92915050565b6000813590506108ef81610fd4565b92915050565b60006020828403121561090b5761090a610e1a565b5b6000610919848285016108cb565b91505092915050565b60006020828403121561093857610937610e1a565b5b6000610946848285016108e0565b91505092915050565b61095881610cd8565b82525050565b61096f61096a82610cd8565b610d5d565b82525050565b6000610982601a83610be3565b915061098d82610e2c565b602082019050919050565b60006109a5601e83610be3565b91506109b082610e55565b602082019050919050565b60006109c8601f83610be3565b91506109d382610e7e565b602082019050919050565b60006109eb601f83610be3565b91506109f682610ea7565b602082019050919050565b6000610a0e602c83610be3565b9150610a1982610ed0565b604082019050919050565b6000610a31602383610be3565b9150610a3c82610f1f565b604082019050919050565b6000610a54603983610be3565b9150610a5f82610f6e565b604082019050919050565b610a7381610d0a565b82525050565b610a8a610a8582610d0a565b610d81565b82525050565b6000610a9c8286610a79565b602082019150610aac828561095e565b601482019150610abc8284610a79565b602082019150819050949350505050565b6000602082019050610ae2600083018461094f565b92915050565b60006020820190508181036000830152610b0181610975565b9050919050565b60006020820190508181036000830152610b2181610998565b9050919050565b60006020820190508181036000830152610b41816109bb565b9050919050565b60006020820190508181036000830152610b61816109de565b9050919050565b60006020820190508181036000830152610b8181610a01565b9050919050565b60006020820190508181036000830152610ba181610a24565b9050919050565b60006020820190508181036000830152610bc181610a47565b9050919050565b6000602082019050610bdd6000830184610a6a565b92915050565b600082825260208201905092915050565b6000610bff82610d0a565b9150610c0a83610d0a565b9250827fffffffffffffffffffffffffffffffffffffffffffffffffffffffffffffffff03821115610c3f57610c3e610dbc565b5b828201905092915050565b6000610c5582610d0a565b9150610c6083610d0a565b9250817fffffffffffffffffffffffffffffffffffffffffffffffffffffffffffffffff0483118215151615610c9957610c98610dbc565b5b828202905092915050565b6000610caf82610d0a565b9150610cba83610d0a565b925082821015610ccd57610ccc610dbc565b5b828203905092915050565b6000610ce382610cea565b9050919050565b600073ffffffffffffffffffffffffffffffffffffffff82169050919050565b6000819050919050565b6000610d1f82610d0a565b91507fffffffffffffffffffffffffffffffffffffffffffffffffffffffffffffffff821415610d5257610d51610dbc565b5b600182019050919050565b6000610d6882610d6f565b9050919050565b6000610d7a82610e1f565b9050919050565b6000819050919050565b6000610d9682610d0a565b9150610da183610d0a565b925082610db157610db0610deb565b5b828206905092915050565b7f4e487b7100000000000000000000000000000000000000000000000000000000600052601160045260246000fd5b7f4e487b7100000000000000000000000000000000000000000000000000000000600052601260045260246000fd5b600080fd5b60008160601b9050919050565b7f426574206e756d626572206d7573742062652030206f7220312e000000000000600082015250565b7f496e73756666696369656e7420636f6e74726163742062616c616e63652e0000600082015250565b7f55736572206973206e6f742074686520636f6e7472616374206f776e65722e00600082015250565b7f4465706f736974206d7573742062652067726561746572207468616e20302e00600082015250565b7f54686520626574206d7573742062652067726561746572206f7220657175616c60008201527f207468616e2032204554482e0000000000000000000000000000000000000000602082015250565b7f426574746f722063616e27742062652074686520636f6e7472616374206f776e60008201527f65722e0000000000000000000000000000000000000000000000000000000000602082015250565b7f54686520626574206d757374206265206c6f776572206f7220657175616c207460008201527f6f20746865206d617820646566696e656420616d6f756e742e00000000000000602082015250565b610fc681610cd8565b8114610fd157600080fd5b50565b610fdd81610d0a565b8114610fe857600080fd5b5056fea2646970667358221220346c922e51b524bb89bdddbef0c5dde9169c2c6ad35f6347a3815025c402cda764736f6c63430008070033",
  "linkReferences": {},
  "deployedLinkReferences": {}
}