{
  "_format": "hh-sol-artifact-1",
  "contractName": "Manager",
  "sourceName": "contracts/Manager.sol",
  "abi": [
    {
      "inputs": [],
      "name": "betFeeETH",
      "outputs": [
        {
          "internalType": "uint256",
          "name": "",
          "type": "uint256"
        }
      ],
      "stateMutability": "view",
      "type": "function"
    },
    {
      "inputs": [
        {
          "internalType": "address",
          "name": "_newOwner",
          "type": "address"
        }
      ],
      "name": "changeOwner",
      "outputs": [],
      "stateMutability": "nonpayable",
      "type": "function"
    },
    {
      "inputs": [],
      "name": "deposit",
      "outputs": [],
      "stateMutability": "payable",
      "type": "function"
    },
    {
      "inputs": [],
      "name": "getBalance",
      "outputs": [
        {
          "internalType": "uint256",
          "name": "",
          "type": "uint256"
        }
      ],
      "stateMutability": "view",
      "type": "function"
    },
    {
      "inputs": [],
      "name": "getOwner",
      "outputs": [
        {
          "internalType": "address",
          "name": "",
          "type": "address"
        }
      ],
      "stateMutability": "view",
      "type": "function"
    },
    {
      "inputs": [],
      "name": "maxBetETH",
      "outputs": [
        {
          "internalType": "uint256",
          "name": "",
          "type": "uint256"
        }
      ],
      "stateMutability": "view",
      "type": "function"
    },
    {
      "inputs": [
        {
          "internalType": "uint256",
          "name": "_newFee",
          "type": "uint256"
        }
      ],
      "name": "setBetFee",
      "outputs": [],
      "stateMutability": "nonpayable",
      "type": "function"
    },
    {
      "inputs": [
        {
          "internalType": "uint256",
          "name": "_newAmount",
          "type": "uint256"
        }
      ],
      "name": "setMaxBet",
      "outputs": [],
      "stateMutability": "nonpayable",
      "type": "function"
    },
    {
      "inputs": [],
      "name": "withdraw",
      "outputs": [],
      "stateMutability": "nonpayable",
      "type": "function"
    }
  ],
  "bytecode": "0x60806040526801158e460913d000006001556702c68af0bb140000600255600060035534801561002e57600080fd5b50336000806101000a81548173ffffffffffffffffffffffffffffffffffffffff021916908373ffffffffffffffffffffffffffffffffffffffff16021790555061089a8061007e6000396000f3fe6080604052600436106100865760003560e01c806372229abf1161005957806372229abf14610123578063881eff1e1461014c578063893d20e814610175578063a6f9dae1146101a0578063d0e30db0146101c957610086565b806312065fe01461008b5780633919b197146100b65780633ccfd60b146100e1578063707edec6146100f8575b600080fd5b34801561009757600080fd5b506100a06101d3565b6040516100ad91906106ee565b60405180910390f35b3480156100c257600080fd5b506100cb6101db565b6040516100d891906106ee565b60405180910390f35b3480156100ed57600080fd5b506100f66101e1565b005b34801561010457600080fd5b5061010d6102b8565b60405161011a91906106ee565b60405180910390f35b34801561012f57600080fd5b5061014a60048036038101906101459190610602565b6102be565b005b34801561015857600080fd5b50610173600480360381019061016e9190610602565b610369565b005b34801561018157600080fd5b5061018a610414565b6040516101979190610693565b60405180910390f35b3480156101ac57600080fd5b506101c760048036038101906101c291906105d5565b61043d565b005b6101d16104d8565b005b600047905090565b60015481565b60008054906101000a900473ffffffffffffffffffffffffffffffffffffffff1673ffffffffffffffffffffffffffffffffffffffff163373ffffffffffffffffffffffffffffffffffffffff161461026f576040517f08c379a0000000000000000000000000000000000000000000000000000000008152600401610266906106ae565b60405180910390fd5b3373ffffffffffffffffffffffffffffffffffffffff166108fc479081150290604051600060405180830381858888f193505050501580156102b5573d6000803e3d6000fd5b50565b60025481565b60008054906101000a900473ffffffffffffffffffffffffffffffffffffffff1673ffffffffffffffffffffffffffffffffffffffff163373ffffffffffffffffffffffffffffffffffffffff161461034c576040517f08c379a0000000000000000000000000000000000000000000000000000000008152600401610343906106ae565b60405180910390fd5b670de0b6b3a764000081610360919061071a565b60028190555050565b60008054906101000a900473ffffffffffffffffffffffffffffffffffffffff1673ffffffffffffffffffffffffffffffffffffffff163373ffffffffffffffffffffffffffffffffffffffff16146103f7576040517f08c379a00000000000000000000000000000000000000000000000000000000081526004016103ee906106ae565b60405180910390fd5b670de0b6b3a76400008161040b919061071a565b60018190555050565b60008060009054906101000a900473ffffffffffffffffffffffffffffffffffffffff16905090565b60008054906101000a900473ffffffffffffffffffffffffffffffffffffffff1673ffffffffffffffffffffffffffffffffffffffff163373ffffffffffffffffffffffffffffffffffffffff161461049557600080fd5b806000806101000a81548173ffffffffffffffffffffffffffffffffffffffff021916908373ffffffffffffffffffffffffffffffffffffffff16021790555050565b60008054906101000a900473ffffffffffffffffffffffffffffffffffffffff1673ffffffffffffffffffffffffffffffffffffffff163373ffffffffffffffffffffffffffffffffffffffff1614610566576040517f08c379a000000000000000000000000000000000000000000000000000000000815260040161055d906106ae565b60405180910390fd5b600034116105a9576040517f08c379a00000000000000000000000000000000000000000000000000000000081526004016105a0906106ce565b60405180910390fd5b565b6000813590506105ba81610836565b92915050565b6000813590506105cf8161084d565b92915050565b6000602082840312156105eb576105ea6107df565b5b60006105f9848285016105ab565b91505092915050565b600060208284031215610618576106176107df565b5b6000610626848285016105c0565b91505092915050565b61063881610774565b82525050565b600061064b601f83610709565b9150610656826107e4565b602082019050919050565b600061066e601f83610709565b91506106798261080d565b602082019050919050565b61068d816107a6565b82525050565b60006020820190506106a8600083018461062f565b92915050565b600060208201905081810360008301526106c78161063e565b9050919050565b600060208201905081810360008301526106e781610661565b9050919050565b60006020820190506107036000830184610684565b92915050565b600082825260208201905092915050565b6000610725826107a6565b9150610730836107a6565b9250817fffffffffffffffffffffffffffffffffffffffffffffffffffffffffffffffff0483118215151615610769576107686107b0565b5b828202905092915050565b600061077f82610786565b9050919050565b600073ffffffffffffffffffffffffffffffffffffffff82169050919050565b6000819050919050565b7f4e487b7100000000000000000000000000000000000000000000000000000000600052601160045260246000fd5b600080fd5b7f55736572206973206e6f742074686520636f6e7472616374206f776e65722e00600082015250565b7f4465706f736974206d7573742062652067726561746572207468616e20302e00600082015250565b61083f81610774565b811461084a57600080fd5b50565b610856816107a6565b811461086157600080fd5b5056fea26469706673582212203bfa4a2032a157c1bca6bdfb636f29d2aa537e977fe9c7cd892ca0e52570913364736f6c63430008070033",
  "linkReferences": {},
  "deployedLinkReferences": {}
}